{
  "contractName": "KeepSlip",
  "abi": [
    {
      "constant": true,
      "inputs": [
        {
          "internalType": "uint256",
          "name": "",
          "type": "uint256"
        }
      ],
      "name": "ItemArray",
      "outputs": [
        {
          "internalType": "string",
          "name": "receiptId",
          "type": "string"
        },
        {
          "internalType": "string",
          "name": "productName",
          "type": "string"
        },
        {
          "internalType": "uint256",
          "name": "price",
          "type": "uint256"
        },
        {
          "internalType": "uint256",
          "name": "amount",
          "type": "uint256"
        },
        {
          "internalType": "bool",
          "name": "warranty",
          "type": "bool"
        },
        {
          "internalType": "uint256",
          "name": "warrantyTime",
          "type": "uint256"
        }
      ],
      "payable": false,
      "stateMutability": "view",
      "type": "function"
    },
    {
      "constant": true,
      "inputs": [
        {
          "internalType": "uint256",
          "name": "",
          "type": "uint256"
        }
      ],
      "name": "ReceiptIds",
      "outputs": [
        {
          "internalType": "string",
          "name": "",
          "type": "string"
        }
      ],
      "payable": false,
      "stateMutability": "view",
      "type": "function"
    },
    {
      "constant": true,
      "inputs": [
        {
          "internalType": "string",
          "name": "",
          "type": "string"
        },
        {
          "internalType": "uint256",
          "name": "",
          "type": "uint256"
        }
      ],
      "name": "items",
      "outputs": [
        {
          "internalType": "string",
          "name": "receiptId",
          "type": "string"
        },
        {
          "internalType": "string",
          "name": "productName",
          "type": "string"
        },
        {
          "internalType": "uint256",
          "name": "price",
          "type": "uint256"
        },
        {
          "internalType": "uint256",
          "name": "amount",
          "type": "uint256"
        },
        {
          "internalType": "bool",
          "name": "warranty",
          "type": "bool"
        },
        {
          "internalType": "uint256",
          "name": "warrantyTime",
          "type": "uint256"
        }
      ],
      "payable": false,
      "stateMutability": "view",
      "type": "function"
    },
    {
      "constant": true,
      "inputs": [
        {
          "internalType": "string",
          "name": "",
          "type": "string"
        }
      ],
      "name": "receipts",
      "outputs": [
        {
          "internalType": "string",
          "name": "receiptId",
          "type": "string"
        },
        {
          "internalType": "string",
          "name": "customerId",
          "type": "string"
        },
        {
          "internalType": "string",
          "name": "storeId",
          "type": "string"
        }
      ],
      "payable": false,
      "stateMutability": "view",
      "type": "function"
    },
    {
      "constant": false,
      "inputs": [
        {
          "components": [
            {
              "internalType": "string",
              "name": "receiptId",
              "type": "string"
            },
            {
              "internalType": "string",
              "name": "customerId",
              "type": "string"
            },
            {
              "internalType": "string",
              "name": "storeId",
              "type": "string"
            }
          ],
          "internalType": "struct KeepSlip.Receipt",
          "name": "_receipt",
          "type": "tuple"
        },
        {
          "components": [
            {
              "internalType": "string",
              "name": "receiptId",
              "type": "string"
            },
            {
              "internalType": "string",
              "name": "productName",
              "type": "string"
            },
            {
              "internalType": "uint256",
              "name": "price",
              "type": "uint256"
            },
            {
              "internalType": "uint256",
              "name": "amount",
              "type": "uint256"
            },
            {
              "internalType": "bool",
              "name": "warranty",
              "type": "bool"
            },
            {
              "internalType": "uint256",
              "name": "warrantyTime",
              "type": "uint256"
            }
          ],
          "internalType": "struct KeepSlip.Item[]",
          "name": "_items",
          "type": "tuple[]"
        }
      ],
      "name": "add",
      "outputs": [],
      "payable": false,
      "stateMutability": "nonpayable",
      "type": "function"
    },
    {
      "constant": true,
      "inputs": [
        {
          "internalType": "string",
          "name": "_receiptId",
          "type": "string"
        }
      ],
      "name": "getReceiptInformation",
      "outputs": [
        {
          "internalType": "string",
          "name": "",
          "type": "string"
        },
        {
          "internalType": "string",
          "name": "",
          "type": "string"
        },
        {
          "internalType": "string",
          "name": "",
          "type": "string"
        }
      ],
      "payable": false,
      "stateMutability": "view",
      "type": "function"
    },
    {
      "constant": true,
      "inputs": [
        {
          "internalType": "string",
          "name": "_receiptId",
          "type": "string"
        },
        {
          "internalType": "uint256",
          "name": "_itemNumber",
          "type": "uint256"
        }
      ],
      "name": "getItem",
      "outputs": [
        {
          "internalType": "string",
          "name": "",
          "type": "string"
        },
        {
          "internalType": "string",
          "name": "",
          "type": "string"
        },
        {
          "internalType": "uint256",
          "name": "",
          "type": "uint256"
        },
        {
          "internalType": "uint256",
          "name": "",
          "type": "uint256"
        },
        {
          "internalType": "bool",
          "name": "",
          "type": "bool"
        },
        {
          "internalType": "uint256",
          "name": "",
          "type": "uint256"
        }
      ],
      "payable": false,
      "stateMutability": "view",
      "type": "function"
    },
    {
      "constant": true,
      "inputs": [
        {
          "internalType": "string",
          "name": "_receiptId",
          "type": "string"
        }
      ],
      "name": "getAllItemFromReceipt",
      "outputs": [
        {
          "components": [
            {
              "internalType": "string",
              "name": "receiptId",
              "type": "string"
            },
            {
              "internalType": "string",
              "name": "productName",
              "type": "string"
            },
            {
              "internalType": "uint256",
              "name": "price",
              "type": "uint256"
            },
            {
              "internalType": "uint256",
              "name": "amount",
              "type": "uint256"
            },
            {
              "internalType": "bool",
              "name": "warranty",
              "type": "bool"
            },
            {
              "internalType": "uint256",
              "name": "warrantyTime",
              "type": "uint256"
            }
          ],
          "internalType": "struct KeepSlip.Item[]",
          "name": "",
          "type": "tuple[]"
        }
      ],
      "payable": false,
      "stateMutability": "view",
      "type": "function"
    },
    {
      "constant": true,
      "inputs": [
        {
          "internalType": "string",
          "name": "_receiptId",
          "type": "string"
        }
      ],
      "name": "countItem",
      "outputs": [
        {
          "internalType": "uint256",
          "name": "",
          "type": "uint256"
        }
      ],
      "payable": false,
      "stateMutability": "view",
      "type": "function"
    },
    {
      "constant": true,
      "inputs": [],
      "name": "countReceipt",
      "outputs": [
        {
          "internalType": "uint256",
          "name": "",
          "type": "uint256"
        }
      ],
      "payable": false,
      "stateMutability": "view",
      "type": "function"
    },
    {
      "constant": true,
      "inputs": [],
      "name": "listReceipt",
      "outputs": [
        {
          "internalType": "string[]",
          "name": "",
          "type": "string[]"
        }
      ],
      "payable": false,
      "stateMutability": "view",
      "type": "function"
    }
  ],
  "bytecode": "0x608060405234801561001057600080fd5b50611fc4806100206000396000f3fe608060405234801561001057600080fd5b50600436106100a95760003560e01c8063a718647a11610071578063a718647a1461018e578063b38eb8db146101c3578063b5fa2279146101f3578063cfe3152214610211578063d3da858b1461022f578063deeb3d2b14610264576100a9565b80634313898e146100ae57806344bb5201146100de578063608d52c8146100fa57806380721bb91461012a578063873554421461015c575b600080fd5b6100c860048036036100c391908101906116fa565b610299565b6040516100d59190611d6d565b60405180910390f35b6100f860048036036100f391908101906117e3565b6102c4565b005b610114600480360361010f919081019061184f565b610499565b6040516101219190611bd5565b60405180910390f35b610144600480360361013f91908101906116b9565b610552565b60405161015393929190611cb2565b60405180910390f35b610176600480360361017191908101906116fa565b61075a565b60405161018593929190611bf7565b60405180910390f35b6101a860048036036101a3919081019061184f565b61099e565b6040516101ba96959493929190611cfe565b60405180910390f35b6101dd60048036036101d891908101906116fa565b610b24565b6040516101ea9190611bb3565b60405180910390f35b6101fb610d1e565b6040516102089190611d6d565b60405180910390f35b610219610d2b565b6040516102269190611b91565b60405180910390f35b6102496004803603610244919081019061173b565b610e14565b60405161025b96959493929190611c43565b60405180910390f35b61027e6004803603610279919081019061178f565b6110d8565b60405161029096959493929190611cfe565b60405180910390f35b60006003826040516102ab9190611b7a565b9081526020016040518091039020805490509050919050565b6102cc611281565b82905080600082600001516040516102e49190611b63565b9081526020016040518091039020600082015181600001908051906020019061030e9291906112a2565b50602082015181600101908051906020019061032b9291906112a2565b5060408201518160020190805190602001906103489291906112a2565b5090505060008090505b825181101561045057610363611322565b83828151811061036f57fe5b602002602001015190506003836000015160405161038d9190611b63565b9081526020016040518091039020819080600181540180825580915050906001820390600052602060002090600602016000909192909190915060008201518160000190805190602001906103e39291906112a2565b5060208201518160010190805190602001906104009291906112a2565b50604082015181600201556060820151816003015560808201518160040160006101000a81548160ff02191690831515021790555060a08201518160050155505050508080600101915050610352565b5060018160000151908060018154018082558091505090600182039060005260206000200160009091929091909150908051906020019061049292919061135a565b5050505050565b600181815481106104a657fe5b906000526020600020016000915090508054600181600116156101000203166002900480601f01602080910402602001604051908101604052809291908181526020018280546001816001161561010002031660029004801561054a5780601f1061051f5761010080835404028352916020019161054a565b820191906000526020600020905b81548152906001019060200180831161052d57829003601f168201915b505050505081565b600081805160208101820180518482526020830160208501208183528095505050505050600091509050806000018054600181600116156101000203166002900480601f0160208091040260200160405190810160405280929190818152602001828054600181600116156101000203166002900480156106145780601f106105e957610100808354040283529160200191610614565b820191906000526020600020905b8154815290600101906020018083116105f757829003601f168201915b505050505090806001018054600181600116156101000203166002900480601f0160208091040260200160405190810160405280929190818152602001828054600181600116156101000203166002900480156106b25780601f10610687576101008083540402835291602001916106b2565b820191906000526020600020905b81548152906001019060200180831161069557829003601f168201915b505050505090806002018054600181600116156101000203166002900480601f0160208091040260200160405190810160405280929190818152602001828054600181600116156101000203166002900480156107505780601f1061072557610100808354040283529160200191610750565b820191906000526020600020905b81548152906001019060200180831161073357829003601f168201915b5050505050905083565b6060806060610767611281565b6000856040516107779190611b7a565b9081526020016040518091039020604051806060016040529081600082018054600181600116156101000203166002900480601f0160208091040260200160405190810160405280929190818152602001828054600181600116156101000203166002900480156108295780601f106107fe57610100808354040283529160200191610829565b820191906000526020600020905b81548152906001019060200180831161080c57829003601f168201915b50505050508152602001600182018054600181600116156101000203166002900480601f0160208091040260200160405190810160405280929190818152602001828054600181600116156101000203166002900480156108cb5780601f106108a0576101008083540402835291602001916108cb565b820191906000526020600020905b8154815290600101906020018083116108ae57829003601f168201915b50505050508152602001600282018054600181600116156101000203166002900480601f01602080910402602001604051908101604052809291908181526020018280546001816001161561010002031660029004801561096d5780601f106109425761010080835404028352916020019161096d565b820191906000526020600020905b81548152906001019060200180831161095057829003601f168201915b5050505050815250509050806000015181602001518260400151829250819150809050935093509350509193909250565b600281815481106109ab57fe5b9060005260206000209060060201600091509050806000018054600181600116156101000203166002900480601f016020809104026020016040519081016040528092919081815260200182805460018160011615610100020316600290048015610a575780601f10610a2c57610100808354040283529160200191610a57565b820191906000526020600020905b815481529060010190602001808311610a3a57829003601f168201915b505050505090806001018054600181600116156101000203166002900480601f016020809104026020016040519081016040528092919081815260200182805460018160011615610100020316600290048015610af55780601f10610aca57610100808354040283529160200191610af5565b820191906000526020600020905b815481529060010190602001808311610ad857829003601f168201915b5050505050908060020154908060030154908060040160009054906101000a900460ff16908060050154905086565b6060600382604051610b369190611b7a565b9081526020016040518091039020805480602002602001604051908101604052809291908181526020016000905b82821015610d1357838290600052602060002090600602016040518060c0016040529081600082018054600181600116156101000203166002900480601f016020809104026020016040519081016040528092919081815260200182805460018160011615610100020316600290048015610c205780601f10610bf557610100808354040283529160200191610c20565b820191906000526020600020905b815481529060010190602001808311610c0357829003601f168201915b50505050508152602001600182018054600181600116156101000203166002900480601f016020809104026020016040519081016040528092919081815260200182805460018160011615610100020316600290048015610cc25780601f10610c9757610100808354040283529160200191610cc2565b820191906000526020600020905b815481529060010190602001808311610ca557829003601f168201915b5050505050815260200160028201548152602001600382015481526020016004820160009054906101000a900460ff1615151515815260200160058201548152505081526020019060010190610b64565b505050509050919050565b6000600180549050905090565b60606001805480602002602001604051908101604052809291908181526020016000905b82821015610e0b578382906000526020600020018054600181600116156101000203166002900480601f016020809104026020016040519081016040528092919081815260200182805460018160011615610100020316600290048015610df75780601f10610dcc57610100808354040283529160200191610df7565b820191906000526020600020905b815481529060010190602001808311610dda57829003601f168201915b505050505081526020019060010190610d4f565b50505050905090565b606080600080600080600388604051610e2d9190611b7a565b90815260200160405180910390208781548110610e4657fe5b9060005260206000209060060201600001600389604051610e679190611b7a565b90815260200160405180910390208881548110610e8057fe5b906000526020600020906006020160010160038a604051610ea19190611b7a565b90815260200160405180910390208981548110610eba57fe5b90600052602060002090600602016002015460038b604051610edc9190611b7a565b90815260200160405180910390208a81548110610ef557fe5b90600052602060002090600602016003015460038c604051610f179190611b7a565b90815260200160405180910390208b81548110610f3057fe5b906000526020600020906006020160040160009054906101000a900460ff1660038d604051610f5f9190611b7a565b90815260200160405180910390208c81548110610f7857fe5b906000526020600020906006020160050154858054600181600116156101000203166002900480601f01602080910402602001604051908101604052809291908181526020018280546001816001161561010002031660029004801561101f5780601f10610ff45761010080835404028352916020019161101f565b820191906000526020600020905b81548152906001019060200180831161100257829003601f168201915b50505050509550848054600181600116156101000203166002900480601f0160208091040260200160405190810160405280929190818152602001828054600181600116156101000203166002900480156110bb5780601f10611090576101008083540402835291602001916110bb565b820191906000526020600020905b81548152906001019060200180831161109e57829003601f168201915b505050505094509550955095509550955095509295509295509295565b600382805160208101820180518482526020830160208501208183528095505050505050818154811061110757fe5b906000526020600020906006020160009150915050806000018054600181600116156101000203166002900480601f0160208091040260200160405190810160405280929190818152602001828054600181600116156101000203166002900480156111b45780601f10611189576101008083540402835291602001916111b4565b820191906000526020600020905b81548152906001019060200180831161119757829003601f168201915b505050505090806001018054600181600116156101000203166002900480601f0160208091040260200160405190810160405280929190818152602001828054600181600116156101000203166002900480156112525780601f1061122757610100808354040283529160200191611252565b820191906000526020600020905b81548152906001019060200180831161123557829003601f168201915b5050505050908060020154908060030154908060040160009054906101000a900460ff16908060050154905086565b60405180606001604052806060815260200160608152602001606081525090565b828054600181600116156101000203166002900490600052602060002090601f016020900481019282601f106112e357805160ff1916838001178555611311565b82800160010185558215611311579182015b828111156113105782518255916020019190600101906112f5565b5b50905061131e91906113da565b5090565b6040518060c0016040528060608152602001606081526020016000815260200160008152602001600015158152602001600081525090565b828054600181600116156101000203166002900490600052602060002090601f016020900481019282601f1061139b57805160ff19168380011785556113c9565b828001600101855582156113c9579182015b828111156113c85782518255916020019190600101906113ad565b5b5090506113d691906113da565b5090565b6113fc91905b808211156113f85760008160009055506001016113e0565b5090565b90565b600082601f83011261141057600080fd5b813561142361141e82611db5565b611d88565b9150818183526020840193506020810190508360005b83811015611469578135860161144f8882611530565b845260208401935060208301925050600181019050611439565b5050505092915050565b60008135905061148281611f53565b92915050565b600082601f83011261149957600080fd5b81356114ac6114a782611ddd565b611d88565b915080825260208301602083018583830111156114c857600080fd5b6114d3838284611f00565b50505092915050565b600082601f8301126114ed57600080fd5b81356115006114fb82611e09565b611d88565b9150808252602083016020830185838301111561151c57600080fd5b611527838284611f00565b50505092915050565b600060c0828403121561154257600080fd5b61154c60c0611d88565b9050600082013567ffffffffffffffff81111561156857600080fd5b61157484828501611488565b600083015250602082013567ffffffffffffffff81111561159457600080fd5b6115a084828501611488565b60208301525060406115b4848285016116a4565b60408301525060606115c8848285016116a4565b60608301525060806115dc84828501611473565b60808301525060a06115f0848285016116a4565b60a08301525092915050565b60006060828403121561160e57600080fd5b6116186060611d88565b9050600082013567ffffffffffffffff81111561163457600080fd5b61164084828501611488565b600083015250602082013567ffffffffffffffff81111561166057600080fd5b61166c84828501611488565b602083015250604082013567ffffffffffffffff81111561168c57600080fd5b61169884828501611488565b60408301525092915050565b6000813590506116b381611f6a565b92915050565b6000602082840312156116cb57600080fd5b600082013567ffffffffffffffff8111156116e557600080fd5b6116f184828501611488565b91505092915050565b60006020828403121561170c57600080fd5b600082013567ffffffffffffffff81111561172657600080fd5b611732848285016114dc565b91505092915050565b6000806040838503121561174e57600080fd5b600083013567ffffffffffffffff81111561176857600080fd5b611774858286016114dc565b9250506020611785858286016116a4565b9150509250929050565b600080604083850312156117a257600080fd5b600083013567ffffffffffffffff8111156117bc57600080fd5b6117c885828601611488565b92505060206117d9858286016116a4565b9150509250929050565b600080604083850312156117f657600080fd5b600083013567ffffffffffffffff81111561181057600080fd5b61181c858286016115fc565b925050602083013567ffffffffffffffff81111561183957600080fd5b611845858286016113ff565b9150509250929050565b60006020828403121561186157600080fd5b600061186f848285016116a4565b91505092915050565b60006118848383611a12565b905092915050565b60006118988383611ab5565b905092915050565b60006118ab82611e55565b6118b58185611e9b565b9350836020820285016118c785611e35565b8060005b8581101561190357848403895281516118e48582611878565b94506118ef83611e81565b925060208a019950506001810190506118cb565b50829750879550505050505092915050565b600061192082611e60565b61192a8185611eac565b93508360208202850161193c85611e45565b8060005b858110156119785784840389528151611959858261188c565b945061196483611e8e565b925060208a01995050600181019050611940565b50829750879550505050505092915050565b61199381611eea565b82525050565b6119a281611eea565b82525050565b60006119b382611e76565b6119bd8185611ece565b93506119cd818560208601611f0f565b6119d681611f42565b840191505092915050565b60006119ec82611e76565b6119f68185611edf565b9350611a06818560208601611f0f565b80840191505092915050565b6000611a1d82611e6b565b611a278185611ebd565b9350611a37818560208601611f0f565b611a4081611f42565b840191505092915050565b6000611a5682611e6b565b611a608185611ece565b9350611a70818560208601611f0f565b611a7981611f42565b840191505092915050565b6000611a8f82611e6b565b611a998185611edf565b9350611aa9818560208601611f0f565b80840191505092915050565b600060c0830160008301518482036000860152611ad28282611a12565b91505060208301518482036020860152611aec8282611a12565b9150506040830151611b016040860182611b45565b506060830151611b146060860182611b45565b506080830151611b27608086018261198a565b5060a0830151611b3a60a0860182611b45565b508091505092915050565b611b4e81611ef6565b82525050565b611b5d81611ef6565b82525050565b6000611b6f8284611a84565b915081905092915050565b6000611b8682846119e1565b915081905092915050565b60006020820190508181036000830152611bab81846118a0565b905092915050565b60006020820190508181036000830152611bcd8184611915565b905092915050565b60006020820190508181036000830152611bef8184611a4b565b905092915050565b60006060820190508181036000830152611c1181866119a8565b90508181036020830152611c2581856119a8565b90508181036040830152611c3981846119a8565b9050949350505050565b600060c0820190508181036000830152611c5d81896119a8565b90508181036020830152611c7181886119a8565b9050611c806040830187611b54565b611c8d6060830186611b54565b611c9a6080830185611999565b611ca760a0830184611b54565b979650505050505050565b60006060820190508181036000830152611ccc8186611a4b565b90508181036020830152611ce08185611a4b565b90508181036040830152611cf48184611a4b565b9050949350505050565b600060c0820190508181036000830152611d188189611a4b565b90508181036020830152611d2c8188611a4b565b9050611d3b6040830187611b54565b611d486060830186611b54565b611d556080830185611999565b611d6260a0830184611b54565b979650505050505050565b6000602082019050611d826000830184611b54565b92915050565b6000604051905081810181811067ffffffffffffffff82111715611dab57600080fd5b8060405250919050565b600067ffffffffffffffff821115611dcc57600080fd5b602082029050602081019050919050565b600067ffffffffffffffff821115611df457600080fd5b601f19601f8301169050602081019050919050565b600067ffffffffffffffff821115611e2057600080fd5b601f19601f8301169050602081019050919050565b6000819050602082019050919050565b6000819050602082019050919050565b600081519050919050565b600081519050919050565b600081519050919050565b600081519050919050565b6000602082019050919050565b6000602082019050919050565b600082825260208201905092915050565b600082825260208201905092915050565b600082825260208201905092915050565b600082825260208201905092915050565b600081905092915050565b60008115159050919050565b6000819050919050565b82818337600083830152505050565b60005b83811015611f2d578082015181840152602081019050611f12565b83811115611f3c576000848401525b50505050565b6000601f19601f8301169050919050565b611f5c81611eea565b8114611f6757600080fd5b50565b611f7381611ef6565b8114611f7e57600080fd5b5056fea365627a7a72315820eb7daaba8d69d36d2bad71a3155c94429e32db68a16257c65846f96cc4df958f6c6578706572696d656e74616cf564736f6c63430005100040",
  "source": "pragma solidity >=0.4.22 <0.6.0;\npragma experimental ABIEncoderV2;\ncontract KeepSlip {\n    struct Receipt {\n        string receiptId;\n        string customerId;\n        string storeId;\n    }\n\n    mapping(string => Receipt) public receipts;\n    string[] public ReceiptIds;\n\n    struct Item {\n        string receiptId;\n        string productName;\n        uint256 price; // thb * 100\n        uint256 amount;\n        bool warranty;\n        uint256 warrantyTime; // day\n    }\n\n    Item[] public ItemArray;\n    mapping(string => Item[]) public items;\n\n    function add(Receipt memory _receipt, Item[] memory _items) public {\n        Receipt memory newReceipt = _receipt;\n        receipts[newReceipt.receiptId] = newReceipt;\n\n        for (uint256 i = 0; i < _items.length; i++) {\n            Item memory newItem = _items[i];\n            items[newReceipt.receiptId].push(newItem);\n        }\n\n        ReceiptIds.push(newReceipt.receiptId);\n    }\n\n    function getReceiptInformation(string memory _receiptId)\n        public\n        view\n        returns (string memory, string memory, string memory)\n    {\n        Receipt memory currentReceipt = receipts[_receiptId];\n        return (\n            currentReceipt.receiptId,\n            currentReceipt.customerId,\n            currentReceipt.storeId\n        );\n    }\n\n    function getItem(string memory _receiptId, uint256 _itemNumber)\n        public\n        view\n        returns (string memory, string memory, uint256, uint256, bool, uint256)\n    {\n        return (\n            items[_receiptId][_itemNumber].receiptId,\n            items[_receiptId][_itemNumber].productName,\n            items[_receiptId][_itemNumber].price,\n            items[_receiptId][_itemNumber].amount,\n            items[_receiptId][_itemNumber].warranty,\n            items[_receiptId][_itemNumber].warrantyTime\n        );\n    }\n\n    function getAllItemFromReceipt(string memory _receiptId)\n        public\n        view\n        returns (Item[] memory)\n    {\n        return items[_receiptId];\n    }\n\n    function countItem(string memory _receiptId) public view returns (uint256) {\n        return items[_receiptId].length;\n    }\n\n    function countReceipt() public view returns (uint256) {\n        return ReceiptIds.length;\n    }\n\n    function listReceipt() public view returns (string[] memory) {\n        return ReceiptIds;\n    }\n}\n// test input\n// [\"a123\", \"A021684\", \"asdqsd3\"],[[\"a123\", \"Espresso\", 4500, 1, false, 0],[\"a123\", \"IPhoneXI\", 4500000, 1, true, 365]]\n// [\"AP245\", \"A021684\", \"asdqsd3\"],[[\"AP245\", \"MacBook Pro\", 4599000, 1, true, 365],[\"AP245\", \"IPhoneXI\", 4500000, 1, true, 365]]\n\n//  solidity  items, resceipts  outpu  \n\n// \n// Receipt  ID  \n//   listReceipt   \n//  DB   id   \n",
  "sourcePath": "/Users/surasith/EthersJS-App/contracts/KeepSlip.sol",
  "compiler": {
    "name": "solc",
    "version": "0.5.16+commit.9c3226ce.Emscripten.clang"
  },
  "schemaVersion": "3.0.23",
  "updatedAt": "2020-02-21T03:48:29.571Z",
  "networkType": "ethereum",
  "devdoc": {
    "methods": {}
  },
  "userdoc": {
    "methods": {}
  }
}