{
  "contractName": "KeepSlip",
  "abi": [
    {
      "constant": true,
      "inputs": [
        {
          "internalType": "uint256",
          "name": "",
          "type": "uint256"
        }
      ],
      "name": "ItemArray",
      "outputs": [
        {
          "internalType": "string",
          "name": "receiptId",
          "type": "string"
        },
        {
          "internalType": "string",
          "name": "productName",
          "type": "string"
        },
        {
          "internalType": "uint256",
          "name": "price",
          "type": "uint256"
        },
        {
          "internalType": "uint256",
          "name": "amount",
          "type": "uint256"
        },
        {
          "internalType": "bool",
          "name": "warranty",
          "type": "bool"
        },
        {
          "internalType": "uint256",
          "name": "warrantyTime",
          "type": "uint256"
        }
      ],
      "payable": false,
      "stateMutability": "view",
      "type": "function"
    },
    {
      "constant": true,
      "inputs": [
        {
          "internalType": "uint256",
          "name": "",
          "type": "uint256"
        }
      ],
      "name": "ReceiptIds",
      "outputs": [
        {
          "internalType": "string",
          "name": "",
          "type": "string"
        }
      ],
      "payable": false,
      "stateMutability": "view",
      "type": "function"
    },
    {
      "constant": true,
      "inputs": [
        {
          "internalType": "string",
          "name": "",
          "type": "string"
        },
        {
          "internalType": "uint256",
          "name": "",
          "type": "uint256"
        }
      ],
      "name": "items",
      "outputs": [
        {
          "internalType": "string",
          "name": "receiptId",
          "type": "string"
        },
        {
          "internalType": "string",
          "name": "productName",
          "type": "string"
        },
        {
          "internalType": "uint256",
          "name": "price",
          "type": "uint256"
        },
        {
          "internalType": "uint256",
          "name": "amount",
          "type": "uint256"
        },
        {
          "internalType": "bool",
          "name": "warranty",
          "type": "bool"
        },
        {
          "internalType": "uint256",
          "name": "warrantyTime",
          "type": "uint256"
        }
      ],
      "payable": false,
      "stateMutability": "view",
      "type": "function"
    },
    {
      "constant": true,
      "inputs": [
        {
          "internalType": "string",
          "name": "",
          "type": "string"
        }
      ],
      "name": "receipts",
      "outputs": [
        {
          "internalType": "string",
          "name": "receiptId",
          "type": "string"
        },
        {
          "internalType": "string",
          "name": "customerId",
          "type": "string"
        }
      ],
      "payable": false,
      "stateMutability": "view",
      "type": "function"
    },
    {
      "constant": false,
      "inputs": [
        {
          "components": [
            {
              "internalType": "string",
              "name": "receiptId",
              "type": "string"
            },
            {
              "internalType": "string",
              "name": "customerId",
              "type": "string"
            }
          ],
          "internalType": "struct KeepSlip.Receipt",
          "name": "_receipt",
          "type": "tuple"
        },
        {
          "components": [
            {
              "internalType": "string",
              "name": "receiptId",
              "type": "string"
            },
            {
              "internalType": "string",
              "name": "productName",
              "type": "string"
            },
            {
              "internalType": "uint256",
              "name": "price",
              "type": "uint256"
            },
            {
              "internalType": "uint256",
              "name": "amount",
              "type": "uint256"
            },
            {
              "internalType": "bool",
              "name": "warranty",
              "type": "bool"
            },
            {
              "internalType": "uint256",
              "name": "warrantyTime",
              "type": "uint256"
            }
          ],
          "internalType": "struct KeepSlip.Item[]",
          "name": "_items",
          "type": "tuple[]"
        }
      ],
      "name": "add",
      "outputs": [],
      "payable": false,
      "stateMutability": "nonpayable",
      "type": "function"
    },
    {
      "constant": true,
      "inputs": [
        {
          "internalType": "string",
          "name": "_receiptId",
          "type": "string"
        }
      ],
      "name": "getReceiptInformation",
      "outputs": [
        {
          "internalType": "string",
          "name": "",
          "type": "string"
        },
        {
          "internalType": "string",
          "name": "",
          "type": "string"
        }
      ],
      "payable": false,
      "stateMutability": "view",
      "type": "function"
    },
    {
      "constant": true,
      "inputs": [
        {
          "internalType": "string",
          "name": "_receiptId",
          "type": "string"
        },
        {
          "internalType": "uint256",
          "name": "_itemNumber",
          "type": "uint256"
        }
      ],
      "name": "getItem",
      "outputs": [
        {
          "internalType": "string",
          "name": "",
          "type": "string"
        },
        {
          "internalType": "string",
          "name": "",
          "type": "string"
        },
        {
          "internalType": "uint256",
          "name": "",
          "type": "uint256"
        },
        {
          "internalType": "uint256",
          "name": "",
          "type": "uint256"
        },
        {
          "internalType": "bool",
          "name": "",
          "type": "bool"
        },
        {
          "internalType": "uint256",
          "name": "",
          "type": "uint256"
        }
      ],
      "payable": false,
      "stateMutability": "view",
      "type": "function"
    },
    {
      "constant": true,
      "inputs": [
        {
          "internalType": "string",
          "name": "_receiptId",
          "type": "string"
        }
      ],
      "name": "getAllItemFromReceipt",
      "outputs": [
        {
          "components": [
            {
              "internalType": "string",
              "name": "receiptId",
              "type": "string"
            },
            {
              "internalType": "string",
              "name": "productName",
              "type": "string"
            },
            {
              "internalType": "uint256",
              "name": "price",
              "type": "uint256"
            },
            {
              "internalType": "uint256",
              "name": "amount",
              "type": "uint256"
            },
            {
              "internalType": "bool",
              "name": "warranty",
              "type": "bool"
            },
            {
              "internalType": "uint256",
              "name": "warrantyTime",
              "type": "uint256"
            }
          ],
          "internalType": "struct KeepSlip.Item[]",
          "name": "",
          "type": "tuple[]"
        }
      ],
      "payable": false,
      "stateMutability": "view",
      "type": "function"
    },
    {
      "constant": true,
      "inputs": [
        {
          "internalType": "string",
          "name": "_receiptId",
          "type": "string"
        }
      ],
      "name": "countItem",
      "outputs": [
        {
          "internalType": "uint256",
          "name": "",
          "type": "uint256"
        }
      ],
      "payable": false,
      "stateMutability": "view",
      "type": "function"
    },
    {
      "constant": true,
      "inputs": [],
      "name": "countReceipt",
      "outputs": [
        {
          "internalType": "uint256",
          "name": "",
          "type": "uint256"
        }
      ],
      "payable": false,
      "stateMutability": "view",
      "type": "function"
    }
  ],
  "bytecode": "0x608060405234801561001057600080fd5b50611c04806100206000396000f3fe608060405234801561001057600080fd5b506004361061009e5760003560e01c8063a718647a11610066578063a718647a14610181578063b38eb8db146101b6578063b5fa2279146101e6578063d3da858b14610204578063deeb3d2b146102395761009e565b80634313898e146100a35780635c92a483146100d3578063608d52c8146100ef57806380721bb91461011f5780638735544214610150575b600080fd5b6100bd60048036036100b89190810190611448565b61026e565b6040516100ca91906119e6565b60405180910390f35b6100ed60048036036100e89190810190611531565b610299565b005b6101096004803603610104919081019061159d565b610451565b6040516101169190611878565b60405180910390f35b61013960048036036101349190810190611407565b61050a565b604051610147929190611940565b60405180910390f35b61016a60048036036101659190810190611448565b610674565b60405161017892919061189a565b60405180910390f35b61019b6004803603610196919081019061159d565b610808565b6040516101ad96959493929190611977565b60405180910390f35b6101d060048036036101cb9190810190611448565b61098e565b6040516101dd9190611856565b60405180910390f35b6101ee610b88565b6040516101fb91906119e6565b60405180910390f35b61021e60048036036102199190810190611489565b610b95565b604051610230969594939291906118d1565b60405180910390f35b610253600480360361024e91908101906114dd565b610e59565b60405161026596959493929190611977565b60405180910390f35b6000600382604051610280919061183f565b9081526020016040518091039020805490509050919050565b6102a1611002565b82905080600082600001516040516102b99190611828565b908152602001604051809103902060008201518160000190805190602001906102e392919061101c565b50602082015181600101908051906020019061030092919061101c565b5090505060008090505b82518110156104085761031b61109c565b83828151811061032757fe5b60200260200101519050600383600001516040516103459190611828565b90815260200160405180910390208190806001815401808255809150509060018203906000526020600020906006020160009091929091909150600082015181600001908051906020019061039b92919061101c565b5060208201518160010190805190602001906103b892919061101c565b50604082015181600201556060820151816003015560808201518160040160006101000a81548160ff02191690831515021790555060a0820151816005015550505050808060010191505061030a565b5060018160000151908060018154018082558091505090600182039060005260206000200160009091929091909150908051906020019061044a9291906110d4565b5050505050565b6001818154811061045e57fe5b906000526020600020016000915090508054600181600116156101000203166002900480601f0160208091040260200160405190810160405280929190818152602001828054600181600116156101000203166002900480156105025780601f106104d757610100808354040283529160200191610502565b820191906000526020600020905b8154815290600101906020018083116104e557829003601f168201915b505050505081565b600081805160208101820180518482526020830160208501208183528095505050505050600091509050806000018054600181600116156101000203166002900480601f0160208091040260200160405190810160405280929190818152602001828054600181600116156101000203166002900480156105cc5780601f106105a1576101008083540402835291602001916105cc565b820191906000526020600020905b8154815290600101906020018083116105af57829003601f168201915b505050505090806001018054600181600116156101000203166002900480601f01602080910402602001604051908101604052809291908181526020018280546001816001161561010002031660029004801561066a5780601f1061063f5761010080835404028352916020019161066a565b820191906000526020600020905b81548152906001019060200180831161064d57829003601f168201915b5050505050905082565b60608061067f611002565b60008460405161068f919061183f565b9081526020016040518091039020604051806040016040529081600082018054600181600116156101000203166002900480601f0160208091040260200160405190810160405280929190818152602001828054600181600116156101000203166002900480156107415780601f1061071657610100808354040283529160200191610741565b820191906000526020600020905b81548152906001019060200180831161072457829003601f168201915b50505050508152602001600182018054600181600116156101000203166002900480601f0160208091040260200160405190810160405280929190818152602001828054600181600116156101000203166002900480156107e35780601f106107b8576101008083540402835291602001916107e3565b820191906000526020600020905b8154815290600101906020018083116107c657829003601f168201915b5050505050815250509050806000015181602001518191508090509250925050915091565b6002818154811061081557fe5b9060005260206000209060060201600091509050806000018054600181600116156101000203166002900480601f0160208091040260200160405190810160405280929190818152602001828054600181600116156101000203166002900480156108c15780601f10610896576101008083540402835291602001916108c1565b820191906000526020600020905b8154815290600101906020018083116108a457829003601f168201915b505050505090806001018054600181600116156101000203166002900480601f01602080910402602001604051908101604052809291908181526020018280546001816001161561010002031660029004801561095f5780601f106109345761010080835404028352916020019161095f565b820191906000526020600020905b81548152906001019060200180831161094257829003601f168201915b5050505050908060020154908060030154908060040160009054906101000a900460ff16908060050154905086565b60606003826040516109a0919061183f565b9081526020016040518091039020805480602002602001604051908101604052809291908181526020016000905b82821015610b7d57838290600052602060002090600602016040518060c0016040529081600082018054600181600116156101000203166002900480601f016020809104026020016040519081016040528092919081815260200182805460018160011615610100020316600290048015610a8a5780601f10610a5f57610100808354040283529160200191610a8a565b820191906000526020600020905b815481529060010190602001808311610a6d57829003601f168201915b50505050508152602001600182018054600181600116156101000203166002900480601f016020809104026020016040519081016040528092919081815260200182805460018160011615610100020316600290048015610b2c5780601f10610b0157610100808354040283529160200191610b2c565b820191906000526020600020905b815481529060010190602001808311610b0f57829003601f168201915b5050505050815260200160028201548152602001600382015481526020016004820160009054906101000a900460ff16151515158152602001600582015481525050815260200190600101906109ce565b505050509050919050565b6000600180549050905090565b606080600080600080600388604051610bae919061183f565b90815260200160405180910390208781548110610bc757fe5b9060005260206000209060060201600001600389604051610be8919061183f565b90815260200160405180910390208881548110610c0157fe5b906000526020600020906006020160010160038a604051610c22919061183f565b90815260200160405180910390208981548110610c3b57fe5b90600052602060002090600602016002015460038b604051610c5d919061183f565b90815260200160405180910390208a81548110610c7657fe5b90600052602060002090600602016003015460038c604051610c98919061183f565b90815260200160405180910390208b81548110610cb157fe5b906000526020600020906006020160040160009054906101000a900460ff1660038d604051610ce0919061183f565b90815260200160405180910390208c81548110610cf957fe5b906000526020600020906006020160050154858054600181600116156101000203166002900480601f016020809104026020016040519081016040528092919081815260200182805460018160011615610100020316600290048015610da05780601f10610d7557610100808354040283529160200191610da0565b820191906000526020600020905b815481529060010190602001808311610d8357829003601f168201915b50505050509550848054600181600116156101000203166002900480601f016020809104026020016040519081016040528092919081815260200182805460018160011615610100020316600290048015610e3c5780601f10610e1157610100808354040283529160200191610e3c565b820191906000526020600020905b815481529060010190602001808311610e1f57829003601f168201915b505050505094509550955095509550955095509295509295509295565b6003828051602081018201805184825260208301602085012081835280955050505050508181548110610e8857fe5b906000526020600020906006020160009150915050806000018054600181600116156101000203166002900480601f016020809104026020016040519081016040528092919081815260200182805460018160011615610100020316600290048015610f355780601f10610f0a57610100808354040283529160200191610f35565b820191906000526020600020905b815481529060010190602001808311610f1857829003601f168201915b505050505090806001018054600181600116156101000203166002900480601f016020809104026020016040519081016040528092919081815260200182805460018160011615610100020316600290048015610fd35780601f10610fa857610100808354040283529160200191610fd3565b820191906000526020600020905b815481529060010190602001808311610fb657829003601f168201915b5050505050908060020154908060030154908060040160009054906101000a900460ff16908060050154905086565b604051806040016040528060608152602001606081525090565b828054600181600116156101000203166002900490600052602060002090601f016020900481019282601f1061105d57805160ff191683800117855561108b565b8280016001018555821561108b579182015b8281111561108a57825182559160200191906001019061106f565b5b5090506110989190611154565b5090565b6040518060c0016040528060608152602001606081526020016000815260200160008152602001600015158152602001600081525090565b828054600181600116156101000203166002900490600052602060002090601f016020900481019282601f1061111557805160ff1916838001178555611143565b82800160010185558215611143579182015b82811115611142578251825591602001919060010190611127565b5b5090506111509190611154565b5090565b61117691905b8082111561117257600081600090555060010161115a565b5090565b90565b600082601f83011261118a57600080fd5b813561119d61119882611a2e565b611a01565b9150818183526020840193506020810190508360005b838110156111e357813586016111c988826112aa565b8452602084019350602083019250506001810190506111b3565b5050505092915050565b6000813590506111fc81611b93565b92915050565b600082601f83011261121357600080fd5b813561122661122182611a56565b611a01565b9150808252602083016020830185838301111561124257600080fd5b61124d838284611b40565b50505092915050565b600082601f83011261126757600080fd5b813561127a61127582611a82565b611a01565b9150808252602083016020830185838301111561129657600080fd5b6112a1838284611b40565b50505092915050565b600060c082840312156112bc57600080fd5b6112c660c0611a01565b9050600082013567ffffffffffffffff8111156112e257600080fd5b6112ee84828501611202565b600083015250602082013567ffffffffffffffff81111561130e57600080fd5b61131a84828501611202565b602083015250604061132e848285016113f2565b6040830152506060611342848285016113f2565b6060830152506080611356848285016111ed565b60808301525060a061136a848285016113f2565b60a08301525092915050565b60006040828403121561138857600080fd5b6113926040611a01565b9050600082013567ffffffffffffffff8111156113ae57600080fd5b6113ba84828501611202565b600083015250602082013567ffffffffffffffff8111156113da57600080fd5b6113e684828501611202565b60208301525092915050565b60008135905061140181611baa565b92915050565b60006020828403121561141957600080fd5b600082013567ffffffffffffffff81111561143357600080fd5b61143f84828501611202565b91505092915050565b60006020828403121561145a57600080fd5b600082013567ffffffffffffffff81111561147457600080fd5b61148084828501611256565b91505092915050565b6000806040838503121561149c57600080fd5b600083013567ffffffffffffffff8111156114b657600080fd5b6114c285828601611256565b92505060206114d3858286016113f2565b9150509250929050565b600080604083850312156114f057600080fd5b600083013567ffffffffffffffff81111561150a57600080fd5b61151685828601611202565b9250506020611527858286016113f2565b9150509250929050565b6000806040838503121561154457600080fd5b600083013567ffffffffffffffff81111561155e57600080fd5b61156a85828601611376565b925050602083013567ffffffffffffffff81111561158757600080fd5b61159385828601611179565b9150509250929050565b6000602082840312156115af57600080fd5b60006115bd848285016113f2565b91505092915050565b60006115d2838361177a565b905092915050565b60006115e582611abe565b6115ef8185611aec565b93508360208202850161160185611aae565b8060005b8581101561163d578484038952815161161e85826115c6565b945061162983611adf565b925060208a01995050600181019050611605565b50829750879550505050505092915050565b61165881611b2a565b82525050565b61166781611b2a565b82525050565b600061167882611ad4565b6116828185611b0e565b9350611692818560208601611b4f565b61169b81611b82565b840191505092915050565b60006116b182611ad4565b6116bb8185611b1f565b93506116cb818560208601611b4f565b80840191505092915050565b60006116e282611ac9565b6116ec8185611afd565b93506116fc818560208601611b4f565b61170581611b82565b840191505092915050565b600061171b82611ac9565b6117258185611b0e565b9350611735818560208601611b4f565b61173e81611b82565b840191505092915050565b600061175482611ac9565b61175e8185611b1f565b935061176e818560208601611b4f565b80840191505092915050565b600060c083016000830151848203600086015261179782826116d7565b915050602083015184820360208601526117b182826116d7565b91505060408301516117c6604086018261180a565b5060608301516117d9606086018261180a565b5060808301516117ec608086018261164f565b5060a08301516117ff60a086018261180a565b508091505092915050565b61181381611b36565b82525050565b61182281611b36565b82525050565b60006118348284611749565b915081905092915050565b600061184b82846116a6565b915081905092915050565b6000602082019050818103600083015261187081846115da565b905092915050565b600060208201905081810360008301526118928184611710565b905092915050565b600060408201905081810360008301526118b4818561166d565b905081810360208301526118c8818461166d565b90509392505050565b600060c08201905081810360008301526118eb818961166d565b905081810360208301526118ff818861166d565b905061190e6040830187611819565b61191b6060830186611819565b611928608083018561165e565b61193560a0830184611819565b979650505050505050565b6000604082019050818103600083015261195a8185611710565b9050818103602083015261196e8184611710565b90509392505050565b600060c08201905081810360008301526119918189611710565b905081810360208301526119a58188611710565b90506119b46040830187611819565b6119c16060830186611819565b6119ce608083018561165e565b6119db60a0830184611819565b979650505050505050565b60006020820190506119fb6000830184611819565b92915050565b6000604051905081810181811067ffffffffffffffff82111715611a2457600080fd5b8060405250919050565b600067ffffffffffffffff821115611a4557600080fd5b602082029050602081019050919050565b600067ffffffffffffffff821115611a6d57600080fd5b601f19601f8301169050602081019050919050565b600067ffffffffffffffff821115611a9957600080fd5b601f19601f8301169050602081019050919050565b6000819050602082019050919050565b600081519050919050565b600081519050919050565b600081519050919050565b6000602082019050919050565b600082825260208201905092915050565b600082825260208201905092915050565b600082825260208201905092915050565b600081905092915050565b60008115159050919050565b6000819050919050565b82818337600083830152505050565b60005b83811015611b6d578082015181840152602081019050611b52565b83811115611b7c576000848401525b50505050565b6000601f19601f8301169050919050565b611b9c81611b2a565b8114611ba757600080fd5b50565b611bb381611b36565b8114611bbe57600080fd5b5056fea365627a7a72315820d899b326c6ae383e62af4403391a368936f11dc0af5ff7a8359cfffff8810e476c6578706572696d656e74616cf564736f6c63430005100040",
  "source": "pragma solidity >=0.4.22 <0.6.0;\r\npragma experimental ABIEncoderV2;\r\ncontract KeepSlip{\r\n    struct Receipt{\r\n        string receiptId;\r\n        string customerId;\r\n    }\r\n\r\n    mapping (string => Receipt) public receipts;\r\n    string[] public ReceiptIds;\r\n    \r\n    struct Item{\r\n        string receiptId;\r\n        string productName;\r\n        uint price; // thb * 100\r\n        uint amount;\r\n        bool warranty;\r\n        uint warrantyTime; // day\r\n    }\r\n    \r\n    Item[] public ItemArray;\r\n    mapping (string => Item[]) public items;\r\n    \r\n    function add(Receipt memory _receipt, Item[] memory _items) public {\r\n        Receipt memory newReceipt = _receipt;\r\n        receipts[newReceipt.receiptId] = newReceipt; \r\n    \r\n        for(uint i=0; i<_items.length; i++){\r\n            Item memory newItem = _items[i];\r\n            items[newReceipt.receiptId].push(newItem);\r\n        } \r\n        \r\n        ReceiptIds.push(newReceipt.receiptId);\r\n    }\r\n    \r\n    function getReceiptInformation(string memory _receiptId) public view returns(string memory, string memory){\r\n        Receipt memory currentReceipt = receipts[_receiptId];\r\n        return (currentReceipt.receiptId, currentReceipt.customerId);\r\n    }\r\n    \r\n    function getItem(string memory _receiptId, uint _itemNumber) public view returns(string memory, string memory, uint, uint, bool, uint){\r\n        return (items[_receiptId][_itemNumber].receiptId, items[_receiptId][_itemNumber].productName, items[_receiptId][_itemNumber].price, items[_receiptId][_itemNumber].amount, items[_receiptId][_itemNumber].warranty, items[_receiptId][_itemNumber].warrantyTime);\r\n    }\r\n    \r\n    function getAllItemFromReceipt(string memory _receiptId) public view returns(Item[] memory){\r\n        return items[_receiptId];\r\n    }\r\n    \r\n    function countItem(string memory _receiptId) public view returns(uint) {\r\n      return items[_receiptId].length;\r\n    }\r\n    \r\n    function countReceipt() public view returns(uint) {\r\n      return ReceiptIds.length;\r\n    }\r\n}\r\n// [\"a123\", \"A021684\"],[[\"a123\", \"Espresso\", 4500, 1, false, 0 ],[\"a123\", \"IPhoneXI\", 4500000, 1, true, 365 ]]",
  "sourcePath": "C:\\Users\\Aof\\Desktop\\app2\\contracts\\KeepSlip.sol",
  "compiler": {
    "name": "solc",
    "version": "0.5.16+commit.9c3226ce.Emscripten.clang"
  },
  "schemaVersion": "3.0.23",
  "updatedAt": "2020-02-20T16:42:19.752Z",
  "networkType": "ethereum",
  "devdoc": {
    "methods": {}
  },
  "userdoc": {
    "methods": {}
  }
}